{
  "_format": "hh-sol-artifact-1",
  "contractName": "PostContract",
  "sourceName": "contracts/PostContract.sol",
  "abi": [
    {
      "inputs": [],
      "name": "getPosts",
      "outputs": [
        {
          "components": [
            {
              "internalType": "address",
              "name": "author",
              "type": "address"
            },
            {
              "internalType": "string",
              "name": "title",
              "type": "string"
            },
            {
              "internalType": "string",
              "name": "content",
              "type": "string"
            },
            {
              "internalType": "uint256",
              "name": "timestamp",
              "type": "uint256"
            }
          ],
          "internalType": "struct PostContract.Post[]",
          "name": "",
          "type": "tuple[]"
        }
      ],
      "stateMutability": "view",
      "type": "function"
    },
    {
      "inputs": [
        {
          "internalType": "uint256",
          "name": "",
          "type": "uint256"
        }
      ],
      "name": "posts",
      "outputs": [
        {
          "internalType": "address",
          "name": "author",
          "type": "address"
        },
        {
          "internalType": "string",
          "name": "title",
          "type": "string"
        },
        {
          "internalType": "string",
          "name": "content",
          "type": "string"
        },
        {
          "internalType": "uint256",
          "name": "timestamp",
          "type": "uint256"
        }
      ],
      "stateMutability": "view",
      "type": "function"
    },
    {
      "inputs": [
        {
          "internalType": "string",
          "name": "_title",
          "type": "string"
        },
        {
          "internalType": "string",
          "name": "_content",
          "type": "string"
        }
      ],
      "name": "writePost",
      "outputs": [],
      "stateMutability": "nonpayable",
      "type": "function"
    }
  ],
  "bytecode": "0x608060405234801561001057600080fd5b50610f1a806100206000396000f3fe608060405234801561001057600080fd5b50600436106100415760003560e01c80630b1e7f831461004657806341f3004a146100795780638d3f486d14610097575b600080fd5b610060600480360381019061005b919061069d565b6100b3565b60405161007094939291906107aa565b60405180910390f35b610081610223565b60405161008e9190610991565b60405180910390f35b6100b160048036038101906100ac9190610ae8565b610530565b005b600081815481106100c357600080fd5b90600052602060002090600402016000915090508060000160009054906101000a900473ffffffffffffffffffffffffffffffffffffffff169080600101805461010c90610b8f565b80601f016020809104026020016040519081016040528092919081815260200182805461013890610b8f565b80156101855780601f1061015a57610100808354040283529160200191610185565b820191906000526020600020905b81548152906001019060200180831161016857829003601f168201915b50505050509080600201805461019a90610b8f565b80601f01602080910402602001604051908101604052809291908181526020018280546101c690610b8f565b80156102135780601f106101e857610100808354040283529160200191610213565b820191906000526020600020905b8154815290600101906020018083116101f657829003601f168201915b5050505050908060030154905084565b60606000808054905067ffffffffffffffff811115610245576102446109bd565b5b60405190808252806020026020018201604052801561027e57816020015b61026b610615565b8152602001906001900390816102635790505b5090506000805b60008054905081101561047c57600081815481106102a6576102a5610bc0565b5b90600052602060002090600402016040518060800160405290816000820160009054906101000a900473ffffffffffffffffffffffffffffffffffffffff1673ffffffffffffffffffffffffffffffffffffffff1673ffffffffffffffffffffffffffffffffffffffff16815260200160018201805461032590610b8f565b80601f016020809104026020016040519081016040528092919081815260200182805461035190610b8f565b801561039e5780601f106103735761010080835404028352916020019161039e565b820191906000526020600020905b81548152906001019060200180831161038157829003601f168201915b505050505081526020016002820180546103b790610b8f565b80601f01602080910402602001604051908101604052809291908181526020018280546103e390610b8f565b80156104305780601f1061040557610100808354040283529160200191610430565b820191906000526020600020905b81548152906001019060200180831161041357829003601f168201915b5050505050815260200160038201548152505083838151811061045657610455610bc0565b5b6020026020010181905250818061046c90610c1e565b9250508080600101915050610285565b5060008167ffffffffffffffff811115610499576104986109bd565b5b6040519080825280602002602001820160405280156104d257816020015b6104bf610615565b8152602001906001900390816104b75790505b50905060005b82811015610526578381815181106104f3576104f2610bc0565b5b602002602001015182828151811061050e5761050d610bc0565b5b602002602001018190525080806001019150506104d8565b5080935050505090565b600060405180608001604052803373ffffffffffffffffffffffffffffffffffffffff16815260200184815260200183815260200142815250908060018154018082558091505060019003906000526020600020906004020160009091909190915060008201518160000160006101000a81548173ffffffffffffffffffffffffffffffffffffffff021916908373ffffffffffffffffffffffffffffffffffffffff16021790555060208201518160010190816105ee9190610e12565b5060408201518160020190816106049190610e12565b506060820151816003015550505050565b6040518060800160405280600073ffffffffffffffffffffffffffffffffffffffff1681526020016060815260200160608152602001600081525090565b6000604051905090565b600080fd5b600080fd5b6000819050919050565b61067a81610667565b811461068557600080fd5b50565b60008135905061069781610671565b92915050565b6000602082840312156106b3576106b261065d565b5b60006106c184828501610688565b91505092915050565b600073ffffffffffffffffffffffffffffffffffffffff82169050919050565b60006106f5826106ca565b9050919050565b610705816106ea565b82525050565b600081519050919050565b600082825260208201905092915050565b60005b8381101561074557808201518184015260208101905061072a565b60008484015250505050565b6000601f19601f8301169050919050565b600061076d8261070b565b6107778185610716565b9350610787818560208601610727565b61079081610751565b840191505092915050565b6107a481610667565b82525050565b60006080820190506107bf60008301876106fc565b81810360208301526107d18186610762565b905081810360408301526107e58185610762565b90506107f4606083018461079b565b95945050505050565b600081519050919050565b600082825260208201905092915050565b6000819050602082019050919050565b610832816106ea565b82525050565b600082825260208201905092915050565b60006108548261070b565b61085e8185610838565b935061086e818560208601610727565b61087781610751565b840191505092915050565b61088b81610667565b82525050565b60006080830160008301516108a96000860182610829565b50602083015184820360208601526108c18282610849565b915050604083015184820360408601526108db8282610849565b91505060608301516108f06060860182610882565b508091505092915050565b60006109078383610891565b905092915050565b6000602082019050919050565b6000610927826107fd565b6109318185610808565b93508360208202850161094385610819565b8060005b8581101561097f578484038952815161096085826108fb565b945061096b8361090f565b925060208a01995050600181019050610947565b50829750879550505050505092915050565b600060208201905081810360008301526109ab818461091c565b905092915050565b600080fd5b600080fd5b7f4e487b7100000000000000000000000000000000000000000000000000000000600052604160045260246000fd5b6109f582610751565b810181811067ffffffffffffffff82111715610a1457610a136109bd565b5b80604052505050565b6000610a27610653565b9050610a3382826109ec565b919050565b600067ffffffffffffffff821115610a5357610a526109bd565b5b610a5c82610751565b9050602081019050919050565b82818337600083830152505050565b6000610a8b610a8684610a38565b610a1d565b905082815260208101848484011115610aa757610aa66109b8565b5b610ab2848285610a69565b509392505050565b600082601f830112610acf57610ace6109b3565b5b8135610adf848260208601610a78565b91505092915050565b60008060408385031215610aff57610afe61065d565b5b600083013567ffffffffffffffff811115610b1d57610b1c610662565b5b610b2985828601610aba565b925050602083013567ffffffffffffffff811115610b4a57610b49610662565b5b610b5685828601610aba565b9150509250929050565b7f4e487b7100000000000000000000000000000000000000000000000000000000600052602260045260246000fd5b60006002820490506001821680610ba757607f821691505b602082108103610bba57610bb9610b60565b5b50919050565b7f4e487b7100000000000000000000000000000000000000000000000000000000600052603260045260246000fd5b7f4e487b7100000000000000000000000000000000000000000000000000000000600052601160045260246000fd5b6000610c2982610667565b91507fffffffffffffffffffffffffffffffffffffffffffffffffffffffffffffffff8203610c5b57610c5a610bef565b5b600182019050919050565b60008190508160005260206000209050919050565b60006020601f8301049050919050565b600082821b905092915050565b600060088302610cc87fffffffffffffffffffffffffffffffffffffffffffffffffffffffffffffffff82610c8b565b610cd28683610c8b565b95508019841693508086168417925050509392505050565b6000819050919050565b6000610d0f610d0a610d0584610667565b610cea565b610667565b9050919050565b6000819050919050565b610d2983610cf4565b610d3d610d3582610d16565b848454610c98565b825550505050565b600090565b610d52610d45565b610d5d818484610d20565b505050565b5b81811015610d8157610d76600082610d4a565b600181019050610d63565b5050565b601f821115610dc657610d9781610c66565b610da084610c7b565b81016020851015610daf578190505b610dc3610dbb85610c7b565b830182610d62565b50505b505050565b600082821c905092915050565b6000610de960001984600802610dcb565b1980831691505092915050565b6000610e028383610dd8565b9150826002028217905092915050565b610e1b8261070b565b67ffffffffffffffff811115610e3457610e336109bd565b5b610e3e8254610b8f565b610e49828285610d85565b600060209050601f831160018114610e7c5760008415610e6a578287015190505b610e748582610df6565b865550610edc565b601f198416610e8a86610c66565b60005b82811015610eb257848901518255600182019150602085019450602081019050610e8d565b86831015610ecf5784890151610ecb601f891682610dd8565b8355505b6001600288020188555050505b50505050505056fea264697066735822122032e0d6d266d7c1a841fe696432bd123a0d3b93b606dff8906d1194dfcddf125564736f6c63430008180033",
  "linkReferences": {},
  "deployedLinkReferences": {}
}